:1000000002000375814E12012DE582600302006F2C
:10001000780079007A007B007C007D00EC4D601C4C
:1000200088828983E493A3A882A9838A828B83F040
:10003000A3AA82AB831CBCFFE31D80E07582007520
:1000400083007C007D00EC4D600AE4F0A31CBCFF43
:10005000F51D80F27582007583007C007D00EC4DFB
:10006000600AE4F0A31CBCFFF51D80F21200C5126B
:10007000035480FE0A0A415438394C5035315278C5
:1000800032205350492041444320746573742070DA
:10009000726F6772616D2E0A00436F696E73204341
:1000A0006F6C6C65637465643A003000563A25667F
:1000B0000A00256400666C61673A20256400563AA0
:1000C0002025660A00228582E0A2E792A1D2A3A29F
:1000D000A292F7C2A3A2E692A1D2A3A2A292F6C2D2
:1000E000A3A2E592A1D2A3A2A292F5C2A3A2E492F6
:1000F000A1D2A3A2A292F4C2A3A2E392A1D2A3A2EC
:10010000A292F3C2A3A2E292A1D2A3A2A292F2C2AD
:10011000A3A2E192A1D2A3A2A292F1C2A3A2E092D1
:10012000A1D2A3A2A292F0C2A385F08222758E1161
:1001300075E60075E70075D60075D70075CE0075B9
:10014000CF0075C60075C700438780759852759BB0
:1001500000759AF4759B1E75AE0075820022AA8206
:10016000C28C5389F0438901EA24FA5006EA24FB41
:10017000FA80027A018A3B753C00753D00753E00AD
:1001800090FFEA74FFF5F01205D3AA82AB83C28D0B
:100190008B047D008C8C7B008A8AD28C308DFD2272
:1001A000AA82AB837C007D00C3EC9AED9B502B7E32
:1001B00000BE0400501D7582FAC002C003C004C016
:1001C00005C00612015ED006D005D004D003D002CF
:1001D0000E80DE0CBC00D10D80CE22AA82C2A0759A
:1001E0008201C0021200C6D002EAC454F0FA748040
:1001F0004AF5821200C6AA8274035AFC7B007582FB
:1002000000C003C0041200C6AA82D004D0037D003F
:10021000EA2BFBED3CFCD2A08B828C8322D2B375FF
:10022000822812015EC2B322AA828AE0A2E792B7B4
:10023000A2E692B6A2E592B5A2E492B4C00212027E
:100240001D75822812015ED0028AE0A2E392B7A255
:10025000E292B6A2E192B5A2E092B402021DAA8295
:10026000D2B28A821202289000020201A0AA82C29F
:10027000B28A821202289000050201A0C2B3900047
:10028000141201A075823312026D75823312026D51
:1002900075823212026D75822812026D75820C12FF
:1002A000026D75820112026D9000140201A0AA82F3
:1002B000AB83ACF07402B509047DC080027D808DF3
:1002C00082C002C003C00412026D9000051201A09A
:1002D000D004D003D0027D007E00ED2AFFEE3BF873
:1002E0008C018F82888389F01205B7FF60208F828E
:1002F000C002C003C004C005C00612025ED006D012
:1003000005D004D003D0020DBD00CF0E80CC30004C
:10031000248D028E03C3EA9410EB64809480501500
:10032000758220C002C00312025ED003D0020ABA56
:1003300000E30B80E022C28C5389F0438901758C65
:100340003B758A3B75F43B75F23BD2A9D28C900782
:10035000D00201A0750A6C750B6D750C61750D6F7F
:10036000750E00750F007515009001F41201A07450
:1003700074C0E07400C0E07480C0E01207651581AD
:100380001581158112027C750901D20090009975C2
:10039000F0801202AE750902D2009000AA75F080BA
:1003A0001202AEE4F517F518F519F51AC2A5758213
:1003B000001201DB120641AE82AF83AAF0FB743C4F
:1003C000C0E07414C0E07483C0E07440C0E08E826A
:1003D0008F838AF0EB1206ADAA82AB83AEF0FFE505
:1003E0008124FCF581E4C0E074C0C0E0747FC0E00B
:1003F0007444C0E08A828B838EF0EF12081BAA82BD
:10040000AB83AEF0FFE58124FCF581C002C003C0E0
:1004100006C007C002C003C006C00774ACC0E074C9
:1004200000C0E07480C0E0120765E58124F9F58121
:10043000D007D006D003D0027452C0E074B8C0E038
:10044000744EC0E07440C0E08A828B838EF0EF125D
:10045000064DAC82E58124FCF581EC70030203AC0F
:10046000D2A50519E4B51902051AC019C01A74B24B
:10047000C0E07400C0E07480C0E0120765E581242C
:10048000FBF581C019C01A74B2C0E07400C0E074FA
:1004900080C0E07415C0E07400C0E07440C0E01299
:1004A00007D5E58124F8F581750902D20090001581
:1004B00075F0401202AEC017C01874B5C0E07400E9
:1004C000C0E07480C0E0120765E58124FBF581D2AD
:1004D000A59001F41201A07582001201DB12064101
:1004E00085821B85831C85F01DF51E743CC0E0745D
:1004F00014C0E07483C0E07440C0E0851B82851C9A
:1005000083851DF0E51E1206AD85821B85831C8543
:10051000F01DF51EE58124FCF581E4C0E074C0C047
:10052000E0747FC0E07444C0E0851B82851C838535
:100530001DF0E51E12081BAA82AB83AEF0FFE58119
:1005400024FCF581C002C003C006C007C002C0037E
:10055000C006C00774BEC0E07400C0E07480C0E094
:10056000120765E58124F9F581D007D006D003D0C4
:1005700002E4C0E0C0E07480C0E0743FC0E08A8262
:100580008B838EF0EF12067DAA82E58124FCF58133
:10059000EA70030204CFE4F517F518C0E0C0E07478
:1005A000B5C0E07400C0E07480C0E0120765E5816A
:1005B00024FBF5810203AC20F71430F6148883A8DD
:1005C0008220F507E6A88375830022E280F7E49392
:1005D00022E022AAF0FBE582853BF0A4FCADF0E529
:1005E00083853BF0A42DFDE435F0FEE582853CF0EB
:1005F000A42DFDE5F03EFEE433FFEA853BF0A42E9A
:10060000FEE5F03FFFE583853CF0A42EFEE5F03FDC
:10061000FFE582853DF0A42EFEE5F03FFFEB853B34
:10062000F0A42FFFEA853CF0A42FFFE583853DF081
:10063000A42FFFE582853EF0A42F8EF08D838C825F
:1006400022E4AC83AB82FAF9748E020943FFA881DD
:10065000181812096BD2D133E6400730E70B7582C8
:10066000012220E70675820022C2D112094DE970ED
:1006700003F5822230D101B3E433F58222FFA88151
:10068000181812096BD2D133E6400730E70B758298
:10069000002220E70675820122C2D112094DE970BD
:1006A00003F5822220D101B3E433F58222120A1825
:1006B000BC00030209B7EF60FA30D502B2D1E5837E
:1006C000B4FF030209CDE582B4FF030209CD2583FF
:1006D00040072482400B0209B72483145003020907
:1006E000CDF582EA8DF0A4A8F0EA8EF0A428F8E413
:1006F00035F0F9EB8DF0A428E935F0F9E433CA8F31
:10070000F0A429F9EA35F0FAEBF88EF0A429F9EA19
:1007100035F0FAE433FBEC8DF0A429F9EA35F0FA70
:10072000E43BFBE88FF0A42AFAEB35F0FBE433CC92
:10073000FD8EF0A42AFAEB35F0FBE43CFCED8FF0E3
:10074000A42BFBEC35F0FC20E7031209E502099627
:100750000213D285823785833885F039851F3A9018
:100760000750020E25C008858108E50824FBF53AEC
:10077000E50824FBF8863708863808863990075044
:10078000120E25D00822AA82AB22AC23AD248B8284
:100790008C838DF0EA1213E70522E4B522020523CB
:1007A0002285822285832385F02485253785263876
:1007B00085273985283A900786120E25AA82AB83B1
:1007C000AC22AD23AE248C828D838EF0E41213E72D
:1007D0008A828B8322C008858108E50824F8F53ACF
:1007E000E50824FBF88622088623088624E50824E9
:1007F000F8F88637088638088639900786120E255D
:10080000AA82AB83AC22AD23AE248C828D838EF082
:10081000E41213E78A828B83D00822120A1830D59B
:1008200002B2D1BF0009BC00030209DA0209CDBC43
:1008300000030209B7E583B4FF0BE582B4FF0302AE
:1008400009DA0209B7E582B4FF030209CDC3958333
:100850005007247F400B0209B7248014500302097B
:10086000CDC0E0E4CCCBCAF98D3B8E3C8F3DEF543C
:10087000F0C4F53E758306853EF0EB84F582E9C44D
:10088000F9EAC4FAEBC4FBEC540FC47803D6FC18A5
:10089000EBD6FB18EAD6FA8582F0EDA4A8F0FD8528
:1008A00082F0EEA428FEE435F0F88582F0EFA4286B
:1008B000FFE435F0F8E99DF9EA9EFAEB9FFBEC982E
:1008C000FCAD3BAE3CAF3D30E7101582E92DF9EAB7
:1008D0003EFAEB3FFBE43CFC80EDC082D58398C33D
:1008E000E933F9EA33FAEB33FBEC33FCC3E99DEA75
:1008F0009EEB9FEC9400B3E413F9D002D0E0C44A1D
:10090000FAD003D0E0C44BFBD004D0E0F5F0540F94
:10091000C44CFCD082158230F40FD3EC13FCEB13E3
:10092000FBEA13FAE913F90582E930E70A74012AB0
:10093000FAE43BFBE43CFC0209AEFCABF0AA83A961
:1009400082749EC2D1F5821209E50209967901AA44
:1009500082E68F82B5821318E6B5F00E18E6B583ED
:100960000918E68A82B58202790022B4800FE5F088
:10097000700AE5837006E58270027F00EFB680158D
:1009800018B6001018B6000B18B60006080808764E
:10099000002208080822B98003EA13B34010EA24B1
:1009A00001FAE43BFBE43CFC50047C800582BC0083
:1009B0000EBB000BBA0008E4F5F0F583F58222A225
:1009C000D1E582138CF092F78B838A8222E4F5833F
:1009D000F58275F080F4A2D11322E4F583F58275D7
:1009E000F0C0747F227804EC7011E58224F8500A7C
:1009F000F582E4C9CACBFCD8EF22EC78200582202E
:100A0000E713D5820122C3E933F9EA33FAEB33FB6A
:100A1000EC33FCD8EA158222AA82AB83A2F7339288
:100A2000D16002D2F7F582ACF0E58124F9F8E6FD59
:100A300008E6FE0886F008E6A2F73392D56002D2F7
:100A4000F7F583AFF022AA827457C0E0740AC0E0C1
:100A5000C029C02A8A82220530E4B530020531223D
:100A6000AA8274302AFA24C6500A74072AFA30017E
:100A7000034302208A82020A46E582FAC4540FF533
:100A800082C002120A60D002740F5AF582020A6014
:100A9000AA2BAB2CAC2DAD2EAE2F753620EE2EFE34
:100AA000ED235401FF4206EA2AFAEB33FBEC33FC58
:100AB000ED33FDC3EE95324008EEC39532FE43029E
:100AC00001D536D98A2B8B2C8C2D8D2E8E2F22780A
:100AD0004BE624D075F00AA4FA784CE624D02AFA22
:100AE000784A8603BB2D04C3E49AFA753201C3E445
:100AF00064808AF063F08095F050297536038A038C
:100B000074F62536401C0532E53614243FF8E536E8
:100B1000243FF98704A604772E1BEBFA6004053600
:100B200080DE8B02EA30E70D784086037841A60329
:100B30007840762E0AE534600AE53404FB2532F568
:100B4000328005300C020532783F8603E4BB2D016C
:100B500004FB70062007033008020532300503024B
:100B60000C16300657EB600C75822DC002120A4637
:100B7000D002801C30070C75822BC002120A46D0AE
:100B800002800D30080A758220C002120A46D00287
:100B900078408604BC2E0C758230C002120A46D002
:100BA000021533AC331533C3E5329C4003020C5AB3
:100BB000758230C002120A46D00280E7AC3315338A
:100BC000C3E5329C500C758220C002120A46D00246
:100BD00080EA783F8604BC2D0C75822DC002120A73
:100BE00046D002801C30070C75822BC002120A46C8
:100BF000D002800D30080A758220C002120A46D049
:100C00000278408604BC2E52758230C002120A4619
:100C1000D00215338044EB600E75822DC002120A9B
:100C200046D0021533802030070E75822BC0021289
:100C30000A46D0021533800F30080C758220C0029E
:100C4000120A46D002153378408603BB2E0C7582FB
:100C500030C002120A46D0021533753601C20EE5C5
:100C600036243FF88603BB4503020D17BB2E348A9A
:100C700003C3E464808BF063F08095F0500F7582BD
:100C800030C003120A46D0031B8B0280E48B02D2D1
:100C90000EE5347038200C03020D1775822E120AEF
:100CA000468074300E278A03EB30E71FC3E464806C
:100CB0008534F063F08095F0500C758230C00312DB
:100CC0000A46D00315340B8B0280DD8B02300E0EEA
:100CD000C3E464808534F063F08095F05021E536FC
:100CE000243FF886038B82C002120A46D002300EDF
:100CF0000EE536243FF88603BB2E0280021534151C
:100D000033C3E464808534F063F08095F0400320C1
:100D10000E050536020C5FC3E464808534F063F091
:100D20008095F0500A758230120A46153480E830FA
:100D3000050FAA331533EA6008758220120A46802F
:100D4000F122E5347003300C0D74072534FAE533D5
:100D5000C39AF5338006E53324FAF5337536007807
:100D60003F8602BA2B0F20070C783F76202008051B
:100D70007536010533200519AA33C3E464808AF06F
:100D800063F08095F0500A758220120A4615338070
:100D9000E7C20EE536243FF88602BA00028069BA3F
:100DA000451F3001027665C3E464808534F063F04A
:100DB0008095F0500A758230120A46153480E8D2C8
:100DC0000EC3E5369402E433FA7014EA700EC3E4FD
:100DD00064808534F063F08095F04003300E16E5B2
:100DE00036243FF886028A82120A46E53624FD50F0
:100DF000121534800E7402B53609300C0675822E39
:100E0000120A460536020D93300519AA33C3E4646D
:100E1000808AF063F08095F0500A758220120A46AD
:100E2000153380E72285822985832AE4F530F53160
:100E3000AA37AB38AC398A828B838CF01205B7FDA8
:100E400074012AF537E43BF5388C39EDFA7003026A
:100E500013CBBA250280030213C3C205C206C20720
:100E6000C208C209C20AC20BC20CC202C203C20437
:100E70007532007533007534FFAB37AC38AD398B44
:100E8000828C838DF01205B7FAA3AB82AC838B37CB
:100E90008C388D39BA25078A82120A4680928A06D2
:100EA000BE3000402E8A06EE24C6402774FFB534BB
:100EB00013E53375F00AA4FEEA24D02EF53370BF93
:100EC000D20680BBE53475F00AA4FEEA24D02EF5E4
:100ED0003480ACBA2E0A74FFB534A4753400809FF8
:100EE0008A06BE6100400E8A06EE24854007530242
:100EF000DFD2018002C201BA20028075BA23030248
:100F00000F80BA2A03020F85BA2B02805FBA2D0226
:100F10008055BA4202805FBA4303020FCABA440343
:100F2000021105BA450302111FBA460302111BBA8A
:100F30004703021123BA4903021105BA4C02803B50
:100F4000BA4E03021127BA4F0302110CBA50030222
:100F5000109EBA5303020FEEBA5503021111BA588C
:100F600003021116021151D205020E7FD207020EA2
:100F70007FD208020E7FD20A020E7FD20B020E7FB2
:100F8000D20C020E7F74FFB53420300A0BE53A1400
:100F9000F8883A8633020E7FE53A24FEF8883A86CE
:100FA00006088607188E33020E7F300A0BE53A14C6
:100FB000F8883A8634020E7FE53A24FEF8883A86AD
:100FC00006088607188E34020E7F300A0AE53A14A6
:100FD000F8883A8602800FE53A24FEF8883A8603BC
:100FE000088604188B028A82120A46021156E53AD4
:100FF00024FDF8883A860308860408860518188BAD
:101000002B8C2C8D2D8B828C838DF012151FAB8237
:10101000AC838B3574FFB5340385353420051DC38F
:10102000E53595335016E533C39535F533AB3315B8
:1010300033EB6008758220120A4680F1852B828589
:101040002C83852DF01205B7FBFA6029AB341534DB
:10105000C3E464808BF063F08095F050188A8212AC
:101060000A46AB2BAC2CAD2D0BBB00010C8B2B8C93
:101070002C8D2D80C7200503021156C3E53595330D
:101080004003021156E533C39535F533AB331533C1
:10109000EB7003021156758220120A4680EEE53A83
:1010A00024FDF8883A860308860408860518188BFC
:1010B0002B8C2C8D2DE52DFB30E7047A438013EB30
:1010C000546060047A50800AEB30E6047A4980026A
:1010D0007A588A82C002120A4675823A120A467506
:1010E0008230120A46758278120A46D002BA490244
:1010F000800BBA50028006852C82120A79852B82D9
:10110000120A798051D20975320A804A75320880F4
:101110004575320A8040753210803BD2028037D24A
:10112000038033D204802FE53A24FDF8883A860301
:1011300008860408860518188B2B8C2C8D2D8B8225
:101140008C838DF0E5301213E7A3E5311213E780AD
:10115000058A82120A46200206200303300470E545
:101160003A24FCF8883A860308860408860508862F
:10117000061818188B2B8C2C8D2D8E2EE52BE52C1C
:10118000E52DE52E8B828C838DF0EE12140074FF1A
:10119000B53403753406300427747F552EFB8B2F2E
:1011A000E52FEB2BFB8B2FE52D30E7067401452F48
:1011B000F52FE52F246840067499252F4002D203AD
:1011C000300306120D42020E30120ACF020E30E535
:1011D000327003020E307B44300A2BE53A14F88853
:1011E0003AE6FC3395E0FDFEFF8C2B8D2C8E2D8F87
:1011F0002E20095EAC2B7D007E007F008C2B8D2C79
:101200008E2D8F2E804C300B1FE53A24FCF8883A47
:1012100086040886050886060886071818188C2B89
:101220008D2C8E2D8F2E802AE53A24FEF8883A8662
:101230000408860518ED3395E0FEFF8C2B8D2C8E6F
:101240002D8F2E20090CAC2BAD2C7E007F008E2D17
:101250008F2E300C43E52B452C452D452E603974DF
:1012600008B5320C758230C003120A46D0038028BC
:101270007410B53223758230C003120A46D0033091
:10128000010C758278C003120A46D003800A758269
:1012900058C003120A46D003300925AC2BAD2CAE42
:1012A0002DE52EFF30E717C3E49CFCE49DFDE49E92
:1012B000FEE49FFF8C2B8D2C8E2D8F2E8002C20979
:1012C000753500D20D8B00752F00C000120A90D02A
:1012D00000200D0DE52FC4FCE6FD4CF618880380B8
:1012E00002A62F0535B20DE52B452C452D452E7058
:1012F000D68803E533700375330120061A200517DD
:10130000E53504FCC39533500E758220C003120AE4
:1013100046D003153380E930090E75822DC00312C3
:101320000A46D00315338024E535602030070E755A
:10133000822BC003120A46D0031533800F30080CED
:10134000758220C003120A46D003153320051EAC57
:10135000331533C3E5359C50273006047C308002BA
:101360007C208C82C003120A46D00380E2C3E5359C
:1013700095335009E533C39535F533800375330054
:101380008B00AB351535EB6022B20D200D0A08E657
:10139000C4540FFB8B2F80078603740F5BF52F85DA
:1013A0002F82C000120A60D00080D7200503020EF1
:1013B00030AB331533EB7003020E30758220120A06
:1013C0004680EE8A82120A46020E308530828531CE
:1013D0008322AA82BA0A0810990280FB75990D101F
:1013E000990280FB8A992220F71030F6118883A891
:1013F0008220F507F6A88375830022F280F7F02299
:10140000C0E0F84582458345F07009F5F0FBFCFD2E
:10141000FE0214CEE823A2F792E0F8A982AA83D2B2
:10142000F7ABF07C007E07C3749798404074FF2EA2
:10143000FE740A89F0A4F985F082740A8AF0A4FA8D
:1014400085F083740A8BF0A4FB740529F9EA3582D0
:10145000FAEB3583FB740035F0FCC3EC13FCEB13A3
:10146000FBEA13FAE913F908EC70EF80BAE8C394C9
:101470007FF88B838EF0E4FBFCFDFEFF08C3E933AD
:10148000F9EA33FAE58333F583EB3BD4FBEC3CD448
:10149000FCED3DD4FDEE3ED4FEEF3FD4FF602D05C4
:1014A000F074052BD4FBE43CD4FCE43DD4FDE43ED5
:1014B000D4FEE43FD4FF758204C3EF13FFEE13FEA6
:1014C000ED13FDEC13FCEB13FBD582EDD8AF783FA9
:1014D000D0E020E704762B8002762D087906E7C459
:1014E000540F4430F608B90603762E08E7540F442B
:1014F00030F60819B902E7764508E5F020E70476EA
:101500002B8004762DF4040875F00A844430F60824
:10151000E5F04430F608E4F690003F75F04022AA6A
:1015200082AB83ACF07D007E008A828B838CF012CC
:1015300005B7FFA3AA82AB83EF60070DBD00EA0EDB
:1015400080E78D828E8322000000000000000000F2
:00000001FF
