:1000000000200010150100008D0100008D0100008E
:1000100000000000000000000000000000000000E0
:100020000000000000000000000000008D01000042
:1000300000000000000000008D0100008D010000A4
:100040008D0100008D0100008D010000790B000082
:100050008D0100008D0100008D0100008D01000068
:100060008D010000D90200008D0100008D0100000B
:100070008D0100008D0100008D0100008D01000048
:100080008D0100008D0100008D0100008D01000038
:100090008D0100008D0100008D0100008D01000028
:1000A0008D0100008D0100008D0100008D01000018
:1000B0008D0100008D0100008D0100008D01000008
:1000C00080B500AF0D4B1A680C4B80218A431A6033
:1000D0000B4B00221A600B4B01221A600A4B0422C0
:1000E0001A60084B01221A60084B03221A60084B61
:1000F00001221A60C046BD4680BDC0463882044019
:1001000040800440448004400880044070800440E3
:100110007480044080B584B000AFFFF7D1FF164B68
:10012000FB60164BBB60164A144BD31A7B6007E08A
:10013000FA68531CFB60BB68591CB96012781A70CE
:100140007B685A1E7A60002BF2D10E4BBB600E4AC0
:100150000C4BD31A7B6004E0BB685A1CBA600022C7
:100160001A707B685A1E7A60002BF5D100F036FBBE
:10017000C046BD4604B080BD47120000000000101C
:1001800019000010190000105000001080B500AFD9
:10019000FEE7C04680B500AF2C4B1A682B4B0421FC
:1001A0000A431A602A4B1A68294B1202120A1A6073
:1001B000274B1A68264BE02109050A431A60254B94
:1001C0001A68244B802149000A431A60224B1A689E
:1001D000214B802149000A431A60204B1A681F4BAB
:1001E00001210A431A601E4B962252001A601D4BD1
:1001F000962252001A601C4B01221A601B4BD0221F
:1002000012021A601A4B02221A601A4BA022D20163
:100210001A60194B01221A60184B02221A60184BFF
:1002200003221A80094B1A68084B04218A431A607A
:10023000144B01221A60144B1A68134B8021890059
:100240000A431A60C046BD4680BDC0460440005007
:100250001CC00040808004400480044000400050E6
:100260000041005000420050004300500443005041
:10027000084300500C430050004500500445005016
:1002800008400050F040005000E100E080B582B02E
:1002900000AF78600C4B1A680B4B04210A431A60BC
:1002A0000A4B7A681A600A4B7A681A60094B002276
:1002B0001A60054B1A68044B04218A431A60C04631
:1002C000BD4602B080BDC046044000500041005011
:1002D000004200504040005080B500AF6E4B0122FC
:1002E0001A606E4B1B685A1C6C4B1A606B4B1A6879
:1002F0006B4B1B689A4202D16A4B00221A70674B03
:100300001A68694B1B689A4202D1684B00221A7026
:10031000624B1B68664A934200DCBAE05F4B0022E6
:100320001A60604B01221A70604B01221A70614BF7
:100330001B68002B09D0604B1B685A1C5E4B1A606F
:100340005E4B1B685A1C5D4B1A605B4B1B68002B95
:100350000ADD534B64221A60584B1B68092B03DDDE
:10036000514B822252001A60534B1B680E2B02DD48
:100370004B4BC8221A60504B1B68132B5DDD484B5A
:1003800078221A604D4B1B68182B02DD464BFA226F
:100390001A604A4B1B68192B02DD434BF0221A608E
:1003A000464B1B681A2B02DD3F4BE6221A60434B7B
:1003B0001B681B2B02DD3C4BDC221A603F4B1B6889
:1003C0001C2B02DD384BD2221A603C4B1B681D2BC4
:1003D00002DD354BC8221A60384B1B681E2B02DD2C
:1003E000314BBE221A60354B1B681F2B02DD2E4B92
:1003F000B4221A60314B1B68202B02DD2A4BAA2243
:100400001A602E4B1B68212B02DD274BA0221A609D
:100410002A4B1B68222B02DD234B96221A60274BA6
:100420001B68232B02DD204B8C221A60234B1B6898
:10043000242B02DD1C4B82221A601F4B1B68252BCC
:1004400002DD174B64221A601B4B1B68262B02DD52
:10045000134B50221A60184B1B68272B02DD104BE0
:100460003C221A60144B1B68292B05DD124B00221D
:100470001A60124B00221A600F4B1B68002B08DC1D
:10048000074B3C221A60084B82221A60094B00225B
:100490001A60C046BD4680BDF44000501C000010EC
:1004A00000000010010000A004000010090000A0DE
:1004B0000F2700002C000010200000102400001066
:1004C00080B500AF0A4B0B4A1A600B4B00221A6032
:1004D0000A4B05221A60C046084B1A6880235B024B
:1004E0001340F9D0054B00221A60C046BD4680BDBE
:1004F00014E000E05FEA000018E000E010E000E037
:1005000080B582B000AF786001E0FFF7D9FF7B686B
:100510005A1E7A60002BF8D1C046C046BD4602B0D4
:1005200080BD80B584B000AF7860364B364A1A6023
:10053000364B354A1A60364B05221A6007E0344BB9
:100540001A6880235B02134001D0002356E0314B30
:100550001B78DBB2002BF2D12D4B00221A60294B05
:10056000294A1A60294B284A1A60294B05221A6029
:1005700007E0274B1A6880235B02134001D0002359
:100580003CE0244B1B78DBB2002BF2D0204B002246
:100590001A601C4B1C4A1A601C4B1B4A1A601C4BED
:1005A00005221A600023FB601DE0194B1A688023A6
:1005B0005B02134001D0002320E0164B1B78DBB216
:1005C000002BF2D107E0124B1A6880235B02134024
:1005D00001D0002312E00F4B1B78DBB2002BF2D0CE
:1005E000FB680133FB60FA687B689A42E5DB084BE5
:1005F00000221A60054B1B68034AD31A1800BD4637
:1006000004B080BD14E000E0FFFFFF0018E000E050
:1006100010E000E00D0000A080B500AF244B1A6888
:10062000234B24490A401A60214B1A68204B802131
:10063000C9010A431A60204B1A681F4B10210A4354
:100640001A601B4B1A681A4B08210A431A601A4B8E
:100650001A68194B20210A431A60154B1A68144B6B
:1006600004210A431A60124B1A68114B80210901B8
:100670000A431A600E4B1A680D4B8021C9000A43C9
:100680001A600B4B1A680A4B802109020A431A6050
:10069000074B1A68064B02210A431A60044B1A687A
:1006A000034B802189000A431A60C046BD4680BDC5
:1006B000002000A0FFDFFFFFC0C1004080B582B076
:1006C00000AF0A4B1B687B60084B094A1A60C046A2
:1006D000064B1A688023DB051340F9D1034B7A6877
:1006E0001A60C046BD4602B080BDC04600C0014091
:1006F0003B00004080B500AF134B1A68124B10212D
:100700008A431A60114B1A68104B802149040A432E
:100710001A60FFF7D3FF0E4B1A680D4B52005208B8
:100720001A600C4B01221A600B4B1A680A4B0B49DA
:100730000A401A60084B1A68074B09490A401A60B8
:10074000C046BD4680BDC04638820440808004401B
:1007500008C0014000C00140C0C10040FFFFFEFFD3
:10076000FFFFBFFF80B582B000AF7860184B1A68FA
:10077000174B520052081A60154B1A68144B120B93
:1007800012031A60124B1A6801217B6899400B0012
:1007900019000F4B0A431A600D4B1A680C4B0D4998
:1007A0000A431A600A4B1A68094B8021C9040A439C
:1007B0001A60C046084B1B68002BFBDA064B1B680F
:1007C0001B091B051B0D1800BD4602B080BDC046AD
:1007D00008C001400000048010C0014080B588B00E
:1007E00000AF1F23FB1800221A700123BB61FFF723
:1007F00013FFE1235B02180000F046F9FFF77AFFD0
:10080000FFF7C8FC62B6FA235B001800FFF778FE1A
:100810007F4B180000F044FA7E4B180000F040FABD
:100820007D4B180000F03CFA7C4B180000F038FAC1
:100830007B4B180000F034FA7A4B180000F030FAC5
:10084000794B180000F02CFA0320FFF78BFF030010
:100850007B610920FFF786FF03003B617B69734AD8
:1008600053437349180000F0D1FA0300FB60714B49
:10087000180000F015FA7B6904221021180000F01E
:100880007FFA6D4B180000F00BFAFB686B491800FB
:1008900000F0BCFA030001220A21180000F070FAEF
:1008A0002E2000F0DBF9FB686449180000F094FB8F
:1008B0000B0004220A21180000F062FA604B1800B5
:1008C00000F0EEF90920FFF74DFF03003B613B69A3
:1008D000564A53435649180000F098FA0300BB608B
:1008E000584B180000F0DCF93B6904221021180075
:1008F00000F046FA504B180000F0D2F9BB684F499F
:10090000180000F083FA030001220A21180000F009
:1009100037FA2E2000F0A2F9BB684849180000F011
:100920005BFB0B0004220A21180000F029FA444B5B
:10093000180000F0B5F9444B01221A702320FFF78C
:10094000F0FD03007B60404B00221A707B68002B97
:100950001EDD79683D4800F059FA03003B603C4BCE
:10096000180000F09DF93B6807220A21180000F0EA
:1009700007FA384B180000F093F97B6806220A2129
:10098000180000F0FDF9344B180000F089F903E07D
:10099000324B180000F084F97B68314A934202DC44
:1009A000304B01221A60304B1B68002B07DD2F4BA8
:1009B000180000F075F92E4B01221A7006E02D4B3D
:1009C000180000F06DF92A4B00221A70264B1B68A4
:1009D000012B0BDD284B01221A70284B00221A70C4
:1009E000274B01221A70274B00221A701E4B1B68DE
:1009F000022B00DC28E7204B00221A701F4B00223C
:100A00001A701F4B00221A701E4B00221A701BE72F
:100A1000E40F0000F00F0000101000006010000054
:100A2000981000000811000054110000E880000038
:100A3000FF0F0000C0110000CC11000010270000C3
:100A4000D0110000D41100000E0000A000752B7D15
:100A5000E0110000E4110000F0110000FC110000A2
:100A6000026C00002C000010200000101C1200007E
:100A70000F0000A030120000030000A0020000A040
:100A80000B0000A00A0000A080B582B000AF786023
:100A90002B4B1A682A4B08218A431A60294B1A6883
:100AA000284B8021C9010A431A60254B1A68244B40
:100AB00008210A431A60244B1A68234B08210A4371
:100AC0001A60224B1A68214B01210A431A60204BFD
:100AD0001A681F4BFF218A431A601D4B1A681C4B72
:100AE00004210A431A601A4B1A68194B19490A4023
:100AF0001A60174A164B12681A60174B01221A60C7
:100B0000164B00221A60164B00221A607B681B01EC
:100B10001900144800F07AF903001A00124B1A6009
:100B2000124B01221A60124B00221A60114B1A68F4
:100B3000104B45210A431A60C046BD4602B080BD35
:100B4000048004408080044000E100E0C0C1004017
:100B500000C00040FF00FFFF94800440F08004408C
:100B6000F480044000879303204006400C40064078
:100B7000044006400040064080B582B000AF094BFB
:100B80001B687B607B680122134007D0064B1B6803
:100B9000DAB2064B1100180000F00AF8C046BD4654
:100BA00002B080BD244006401440064034000010CE
:100BB00080B582B000AF78600A00FB1C1A707B68B9
:100BC0009B680F2B14D872B67B689B685A1C7B6895
:100BD0009A607B681B687A68D318FA1C12781A73BB
:100BE0007B681B6801330F221A407B681A6062B66B
:100BF000C046BD4602B080BD80B584B000AF78600D
:100C00000F217B1800221A707B689B68002B14D080
:100C100072B67B689B685A1E7B689A607B685A68CC
:100C20007B1879688A18127B1A707B685B680133BD
:100C30000F221A407B685A6062B60F23FB181B789C
:100C40001800BD4604B080BD80B500AF024B9B6864
:100C50001800BD4680BDC0463400001080B584B089
:100C600000AF0200FB1D1A700A4BFB60C046FB6818
:100C70005A1EFA60002B04D0074B1B680422134055
:100C8000F5D0064BFA1D12781A60C046BD4604B076
:100C900080BDC046FFFF0000084006401C400640E3
:100CA00080B582B000AF786007E07B681B781800E1
:100CB000FFF7D4FF7B6801337B607B681B78002BD8
:100CC000F3D1C046C046BD4602B080BD80B500AF7E
:100CD000034B1800FFF790FF03001800BD4680BDCE
:100CE00034000010B0B584B000AF786039600023E4
:100CF000FB600B23FB1800221A7018E00B257C19EF
:100D0000FFF7E4FF030023702C003B191B78002B36
:100D1000F4D03B191B781800FFF7A0FFFB685A1CA2
:100D2000FA601A007B689B183A1912781A703B68AF
:100D3000013BFA689A4204DA0B23FB181B780A2B52
:100D4000DCD1FB68002B04DDFB687A68D318002235
:100D50001A70FB681800BD4604B0B0BD80B582B003
:100D600000AF78607B681800FFF79AFF034B18000C
:100D7000FFF796FFC046BD4602B080BD441200009A
:100D800080B58EB000AFF860B9607A601023FB18B0
:100D90002022002199541F237B631AE0FB68B96865
:100DA000180000F019F90B0019007B6B5A1E7A63CA
:100DB000154A515C1022BA18D154B968F86800F08D
:100DC00025F80300FB607B68002B02D07B68013BA9
:100DD0007B60FB68DA17D31ADB0FDAB27B68D917AE
:100DE000CB1ADB0FDBB21343DBB2002BD6D17B6B0C
:100DF00001331022BA18D3181800FFF751FFC0466C
:100E0000BD460EB080BDC0460800001003460B432F
:100E10007FD4002243088B4274D303098B425FD3F3
:100E2000030A8B4244D3030B8B4228D3030C8B421F
:100E30000DD3FF22090212BA030C8B4202D3121205
:100E4000090265D0030B8B4219D300E0090AC30BDA
:100E50008B4201D3CB03C01A5241830B8B4201D387
:100E60008B03C01A5241430B8B4201D34B03C01A70
:100E70005241030B8B4201D30B03C01A5241C30AE8
:100E80008B4201D3CB02C01A5241830A8B4201D359
:100E90008B02C01A5241430A8B4201D34B02C01A43
:100EA0005241030A8B4201D30B02C01A5241CDD2E8
:100EB000C3098B4201D3CB01C01A524183098B4233
:100EC00001D38B01C01A524143098B4201D34B011C
:100ED000C01A524103098B4201D30B01C01A52417F
:100EE000C3088B4201D3CB00C01A524183088B4206
:100EF00001D38B00C01A524143088B4201D34B00EF
:100F0000C01A5241411A00D2014652411046704760
:100F10005DE0CA0F00D04942031000D34042534065
:100F200000229C4603098B422DD3030A8B4212D325
:100F3000FC22890112BA030A8B420CD38901921157
:100F40008B4208D3890192118B4204D389013AD094
:100F5000921100E08909C3098B4201D3CB01C01A69
:100F6000524183098B4201D38B01C01A524143097C
:100F70008B4201D34B01C01A524103098B4201D36A
:100F80000B01C01A5241C3088B4201D3CB00C01AD7
:100F9000524183088B4201D38B00C01A5241D9D2EF
:100FA00043088B4201D34B00C01A5241411A00D270
:100FB0000146634652415B10104601D34042002B6C
:100FC00000D54942704763465B1000D3404201B5EB
:100FD000002000F005F802BD0029F8D016E77047A0
:040FE0007047C04650
:100FE4001B5B324A1B5B313B314800000D0A4C50FD
:100FF40043383234206D756C746920492F4F206555
:1010040078616D706C652E0D0A0000004D6561738A
:10101400757265732074686520766F6C746167659A
:10102400206174206368616E6E656C732033206187
:101034006E642039202870696E73203120616E64DB
:101044002032206F66205453534F50323020706149
:10105400636B616765290D0A000000004D656173CB
:101064007572657320706572696F64206F6E2050AD
:10107400494F305F3133202870696E2033206F660A
:10108400205453534F503230207061636B61676555
:10109400290D0A00546F67676C65732050494F30FF
:1010A4005F332C2050494F305F322C2050494F3051
:1010B4005F31312C2050494F305F31302C20504962
:1010C4004F305F31352C2050494F305F312C205048
:1010D400494F305F39202870696E7320372C2038CF
:1010E4002C20392C2031302C203131206F662054B3
:1010F40053534F503230207061636B616765290D23
:101104000A00000047656E6572617465732073653B
:1011140072766F2050574D73206F6E2050494F30B8
:101124005F312C2050494F305F39202870696E732D
:101134002031322C203133206F66205453534F50CA
:101144003230207061636B616765290D0A0000000D
:101154005741524E494E473A2050494F305F313142
:10116400202870696E20392920616E642050494F0F
:10117400305F3130202870696E20313029206E654F
:1011840065642065787465726E616C2070756C6C32
:101194002D7570207265736973746F727320746F28
:1011A40020332E33562028316B207365656D7320F0
:1011B400746F20776F726B290D0A00004144435B02
:1011C400335D3D30780000002C20000056200000E4
:1011D4004144435B395D3D3078000000663D0000CA
:1011E400487A2C20636F756E743D00002020202007
:1011F4002020202020200D004E4F205349474E41EF
:101204004C202020202020202020202020202020AE
:101214002020202020200D002D2D2D20454D41473C
:10122400204F4E202D2D2D0D0A0000002D2D2D2098
:10123400454D4147204F4646202D2D2D0D0A0000D7
:031244000D0A0090
:101247003C0000008200000030313233343536373D
:0912570038394142434445460088
:00000001FF
