:0300000002066C89
:03000B000206608A
:03002B00020606C4
:10002E00C0E0C0D0C000C001C002E4F53CF53DF513
:10003E003EF53FF5407A20E533A2E779047830E6C5
:10004E0033F608D9FA7905783CE636D4F608D9F9AC
:10005E00DAE5D002D001D000D0D0D0E022C0E0C08E
:10006E00D0C000C001C002E4F53CF53DF53EF53FC1
:10007E00F5407A20E533A2E779047830E633F608C6
:10008E00D9FA7905783CC0D0E6243320E70224D093
:10009E0020E30224FDD0D033F608D9EADAD6D00216
:1000AE00D001D000D0D0D0E022C0E0C0D0C000C07F
:1000BE0001C0027A207905C37840E613C0D030E73C
:1000CE000224D030E30224FDF618D0D0D9EC790406
:1000DE007833E613F618D9FADADBD002D001D00065
:1000EE00D0D0D0E022C0E0C0D0E5302534F530E5E8
:1000FE00313535F531E5323536F532E5333537F50F
:10010E0033D0D0D0E022C0E0C0D0C3E5309534F576
:10011E0030E5319535F531E5329536F532E53395E5
:10012E0037F533D0D0D0E022C0E0C0D0C3E5309553
:10013E0034E5319535E5329536E53395379200D075
:10014E00D0D0E022C0E0C0D0C3E5349530E535957F
:10015E0031E5369532E53795339200D0D0D0E02296
:10016E00C0E0C0D0C200C3E53495307014E53595BB
:10017E0031700EE53695327008E53795337002D240
:10018E0000D0D0D0E02212016E20000302015222D4
:10019E0012016E20000302013622C0E0C0F0C0D072
:1001AE00C000C001C002C003E5308534F0A4F8A938
:1001BE00F0E5318534F0A429F9E435F0FAE530851F
:1001CE0035F0A429F9E5F03AFAE433FBE53285344B
:1001DE00F0A42AFAE5F03BFBE5318535F0A42AFAC6
:1001EE00E5F03BFBE5308536F0A42AFAE5F03BFB63
:1001FE00E5338534F0A42BFBE5328535F0A42BFBDB
:10020E00E5318536F0A42BFBE5308537F0A42BFBCA
:10021E008B338A3289318830D003D002D001D0009E
:10022E00D0D0D0F0D0E022C0E0C0D0C000C001C01D
:10023E0002C003C0047C20E4F8F9FAFBC3E53033B6
:10024E00F530E53133F531E53233F532E53333F55B
:10025E0033E833F8E933F9EA33FAEB33FBC3E895C5
:10026E0034E99535EA9536EB95374013E89534F831
:10027E00E99535F9EA9536FAEB9537FB433001DC13
:10028E00BBD004D003D002D001D000D0D0D0E02219
:10029E0085303485313585323685333722E530C5A4
:1002AE0034F530E531C535F531E532C536F532E593
:0602BE0033C537F53322C1
:1002C400C00078B10000D8FCD00022C000C0017981
:1002D4002D78A6D8FED9FADAF6D001D00022D2B30E
:1002E4001202C4C2B322A2E792B7A2E692B6A2E572
:1002F40092B5A2E492B41202E21202C4A2E392B74B
:10030400A2E292B6A2E192B5A2E092B41202E22273
:10031400D2B20202EAC2B20202EAC2B374331203D4
:10032400197433120319743212031974281203193D
:10033400740C1203197401120319C0027A02120216
:10034400CFD00222E4936006120314A380F6224461
:10035400404480020319C0E0E8C4540F443012033F
:0C03640014E8540F4430120314D0E022BF
:10037000E58954F04401F589758CA3758A3475F4C8
:10038000A375F234D2A9D28C22E58954F04401F548
:1003900089758CB7758A3B75F4B775F23BD2A9D2D3
:1003A0008C22E58954F04401F589758CC9758A174A
:1003B00075F4C975F217D2A9D28C22E58954F0449C
:1003C00001F589758CDB758A2075F4DB75F220D216
:1003D000A9D28C22E58954F04401F589758CEB751E
:1003E0008A3075F4EB75F230D2A9D28C22E58954AB
:1003F000F04401F589758CFB758A2F75F4FB75F255
:100400002FD2A9D28C22E58954F04401F589758C4C
:1004100009758A2575F40975F225D2A9D28C22E5D1
:100420008954F04401F589758C16758A7D75F4162A
:1004300075F27DD2A9D28C22E58954F04401F58968
:10044000758C22758A7775F42275F277D2A9D28CD1
:1004500022E58954F04401F589758C2F758ACF7592
:10046000F42F75F2CFD2A9D28C22E58954F0440141
:10047000F589758C3B758AA375F43B75F2A3D2A9F7
:10048000D28C22E58954F04401F589758C46758A31
:100490009875F44675F298D2A9D28C22E58954F069
:1004A0004401F589758C51758A1A75F45175F21AE3
:1004B000D2A9D28C22E58954F04401F589758C5A71
:1004C000758ACD75F45A75F2CDD2A9D28C22E58900
:1004D00054F04401F589758C64758A0C75F4647563
:1004E000F20CD2A9D28C22E58954F04401F5897529
:1004F0008C6C758AD075F46C75F2D0D2A9D28C222E
:10050000E58954F04401F589758C75758A1875F480
:100510007575F218D2A9D28C22E58954F04401F500
:1005200089758C7C758AE575F47C75F2E5D2A9D263
:100530008C22E58954F04401F589758C84758A38DC
:1005400075F48475F238D2A9D28C22E58954F0442E
:1005500001F589758C8B758A3F75F48B75F23FD2E6
:10056000A9D28C22E58954F04401F589758C9175E6
:100570008ACC75F49175F2CCD2A9D28C22E589543B
:10058000F04401F589758C98758A0875F49875F2B0
:1005900008D2A9D28C22E58954F04401F589758CE2
:1005A0009D758AD275F49D75F2D2D2A9D28C22E5BE
:1005B0008954F04401F589758CA3758A4C75F4A3B0
:1005C00075F24CD2A9D28C22E58954F04401F58908
:1005D000758CA8758A8D75F4A875F28DD2A9D28C08
:1005E00022E58954F04401F589758CAD758A7B75D7
:1005F000F4AD75F27BD2A9D28C2275C80075CB0000
:1006000075CA00D2AD22C2CFC0E00541E5417002FB
:100610000542D0E032E58954F04401F589758C91AA
:10062000758AA875F49175F2A8D2A9D28C22E589B1
:1006300054F04401F589758CEA758AE875F4EA7519
:10064000F2E8D2A9D28C22E58954F04401F58975EB
:100650008CFE758AAF75F4FE75F2AFD2A9D28C22EA
:10066000B291321205FA12031ED2AF2275817F12A7
:100670000663C2901206151205FA85CD4375440132
:1006800075458785CC461206D4C0027AFF1202CF88
:10069000D002C0027AFF1202CFD002C0027AFF124B
:1006A00002CFD002C0027AFF1202CFD002C0027A7B
:1006B000FF1202CFD002C0027AFF1202CFD002C0D6
:1006C000027AFF1202CFD002C0027AFF1202CFD00C
:1006D0000202066C1204B5C0027AC81202CFD00220
:1006E0001204E7C0027AC81202CFD00212046AC014
:1006F000027AC81202CFD0021204B5C0027AC81220
:1007000002CFD002C0027AC81202CFD0021204E790
:10071000C0027AC81202CFD00212046AC0027AC89C
:100720001202CFD0021204E7C0027AC81202CFD060
:10073000021204B5C0027AC81202CFD0021204E736
:10074000C0027AC81202CFD00212046AC0027AC86C
:100750001202CFD0021204B5C0027AC81202CFD062
:1007600002C0027AC81202CFD00212041FC0027A5D
:10077000C81202CFD002C0027AC81202CFD0021231
:1007800004B5C0027AC81202CFD002C0027AC812E1
:1007900002CFD0021204E7C0027AC81202CFD00200
:1007A000120438C0027AC81202CFD0021204B5C0B7
:1007B000027AC81202CFD002C0027AC81202CFD089
:1007C000021204B5C0027AC81202CFD002C0027A67
:1007D000C81202CFD002120483C0027AC81202CF1C
:1007E000D00212046AC0027AC81202CFD0021204E8
:1007F00083C0027AC81202CFD0021204B5C0027AB6
:10080000C81202CFD0021204E7C0027AC81202CF87
:10081000D002120519C0027AC81202CFD002120506
:1008200032C0027AC81202CFD0021204E7C0027AA4
:10083000C81202CFD002120532C0027AC81202CF0B
:10084000D002120519C0027AC81202CFD002C0022B
:100850007A641202CFD002120532C0027A64120208
:10086000CFD002120564C0027A641202CFD0021205
:100870000647C0027A641202CFD0021204B5C00249
:100880007AC81202CFD002C0027AC81202CFD002B8
:10089000C0027A641202CFD002120483C0027AC866
:1008A0001202CFD002C0027AC81202CFD0021204C4
:1008B000B5C0027AC81202CFD0021204E7C0027A91
:1008C000C81202CFD00212046AC0027AC81202CF44
:1008D000D0021204B5C0027AC81202CFD002C00200
:1008E0007AC81202CFD0021204B5C0027AC812022E
:1008F000CFD002C0027AC81202CFD002C0027AC89A
:100900001202CFD002120519C0027AC81202CFD04B
:100910000212054BC0027AC81202CFD0021204B5EF
:10092000C0027AC81202CFD002120519C0027AC8DA
:100930001202CFD002C0027AC81202CFD002120532
:1009400019C0027AC81202CFD002120519C0027A69
:10095000C81202CFD002120519C0027AC81202CF03
:10096000D002120519C0027AC81202CFD0021205B5
:100970004BC0027AC81202CFD0021204E7C0027A3A
:10098000641202CFD002120519C0027AC81202CF37
:10099000D0021204CEC0027AC81202CFD0021204D2
:1009A000E7C0027AC81202CFD00212049CC0027AB9
:1009B000C81202CFD0021204B5C0027AC81202CF08
:1009C000D00212046AC0027AC81202CFD002C0025A
:1009D0007A641202CFD002120451C0027A64120269
:1009E000CFD002120647C0027A641202CFD00212A0
:1009F000046AC0027AC81202CFD002C0027AC812BA
:100A000002CFD002C0027AC81202CFD0021204B5BF
:100A1000C0027A641202CFD002120370C0027A645C
:100A20001202CFD002120389C0027A641202CFD020
:100A3000021203BBC0027A641202CFD0021203D4A6
:100A4000C0027A641202CFD0021203EDC0027A64AF
:100A50001202CFD002120406C0027A641202CFD072
:100A6000021204B5C0027AC81202CFD0021204E703
:100A7000C0027AC81202CFD00212046AC0027AC839
:100A80001202CFD0021204B5C0027AC81202CFD02F
:100A900002C0027AC81202CFD002C0027AC8120283
:100AA000CFD002C0027AC81202CFD002120647C0CD
:100AB000027AC81202CFD002120483C0027AC8128E
:100AC00002CFD0021204B5C0027AC81202CFD002FF
:100AD000120438C0027AC81202CFD00212046AC0CF
:100AE000027AC81202CFD002C0027AC81202CFD056
:100AF0000212049CC0027AC81202CFD0021204B5BE
:100B0000C0027AC81202CFD002C0027AC81202CF45
:100B1000D002120438C0027AC81202CFD002C0023A
:100B20007AC81202CFD002C0027AC81202CFD00215
:100B3000C0027AC81202CFD002120406C0027AC8DC
:100B40001202CFD002C0027AC81202CFD002C00275
:100B50007AC81202CFD002C0027AC81202CFD002E5
:030B600002068901
:00000001FF
